:100000000C945D000C9485000C9485000C94850084
:100010000C9485000C9485000C9485000C9485004C
:100020000C9485000C9485000C9485000C9485003C
:100030000C9485000C9485000C9485000C9485002C
:100040000C9410020C9485000C9480020C945A02BB
:100050000C9485000C9485000C9485000C9485000C
:100060000C9485000C9485000000000024002700FB
:100070002A0000000000250028002B0004040404CE
:100080000404040402020202020203030303030342
:10009000010204081020408001020408102001021F
:1000A00004081020000000080002010000030407FB
:1000B00000000000000000004B0411241FBECFEF21
:1000C000D8E0DEBFCDBF11E0A0E0B1E0E6E6FCE0A5
:1000D00002C005900D92AA36B107D9F722E0AAE630
:1000E000B1E001C01D92A031B207E1F710E0CDE50B
:1000F000D0E004C02197FE010E942B06CC35D10729
:10010000C9F70E94B2020C9431060C940000AF9221
:10011000BF92CF92DF92EF92FF920F931F93CF93F4
:10012000DF936C017B018B01040F151FEB015E0156
:10013000AE18BF08C017D10759F06991D601ED91EB
:10014000FC910190F081E02DC6010995892B79F78A
:10015000C501DF91CF911F910F91FF90EF90DF903C
:10016000CF90BF90AF900895FC01538D448D252F03
:1001700030E0842F90E0821B930B541710F0CF9641
:10018000089501970895FC01918D828D981761F073
:10019000A28DAE0FBF2FB11D5D968C91928D9F5F8A
:1001A0009F73928F90E008958FEF9FEF0895FC0169
:1001B000918D828D981731F0828DE80FF11D858D1C
:1001C00090E008958FEF9FEF0895FC01918D228DAF
:1001D000892F90E0805C9F4F821B91098F73992734
:1001E000089583E791E00E94E50021E0892B09F45E
:1001F00020E0822F089580E090E0892B29F00E9472
:10020000F10081110C9400000895FC01A48DA80F49
:10021000B92FB11DA35ABF4F2C91848D90E0019648
:100220008F739927848FA689B7892C93A089B18968
:100230008C91837080648C93938D848D981306C009
:100240000288F389E02D80818F7D80830895EF926D
:10025000FF920F931F93CF93DF93EC0181E0888F80
:100260009B8D8C8D98131AC0E889F989808185FF50
:1002700015C09FB7F894EE89FF896083E889F989F2
:1002800080818370806480839FBF81E090E0DF91F4
:10029000CF911F910F91FF90EF900895F62E0B8D47
:1002A00010E00F5F1F4F0F731127E02E8C8D8E1102
:1002B0000CC00FB607FCFACFE889F989808185FF69
:1002C000F5CFCE010E940501F1CFEB8DEC0FFD2F94
:1002D000F11DE35AFF4FF0829FB7F8940B8FEA8924
:1002E000FB8980818062CFCFCF93DF93EC01888D33
:1002F0008823B9F0AA89BB89E889F9898C9185FDA1
:1003000003C0808186FD0DC00FB607FCF7CF8C912E
:1003100085FFF2CF808185FFEDCFCE010E940501E0
:10032000E9CFDF91CF910895FC0101900020E9F71A
:100330003197AF01481B590BBC0183E791E00C9446
:1003400087008F929F92AF92BF920F931F93CF938C
:10035000DF93CDB7DEB7A1970FB6F894DEBF0FBE1F
:10036000CDBF19A2423008F44AE08E010F5D1F4F45
:10037000842E912CB12CA12CA50194010E94090678
:10038000E62FB901CA01EA30F4F4E05DD801EE933A
:100390008D01232B242B252B79F790E080E01097FB
:1003A00019F0CD010E949401A1960FB6F894DEBF1A
:1003B0000FBECDBFDF91CF911F910F91BF90AF9036
:1003C0009F908F900895E95CE1CFCF92DF92EF92FA
:1003D000FF92CF93DF936B017C016DE283E791E0A5
:1003E0000E942701EC0166277727CB016C197D0954
:1003F0008E099F094AE00E94A1018C0F9D1FDF9189
:10040000CF91FF90EF90DF90CF900895BC01990FAE
:10041000880B990B97FD0C94E5014AE00C94A1011F
:100420001F920F920FB60F9211242F933F938F9329
:100430009F93AF93BF9380916F0190917001A091B2
:100440007101B091720130916E0123E0230F2D37BD
:1004500058F50196A11DB11D20936E0180936F0187
:1004600090937001A0937101B093720180916A0121
:1004700090916B01A0916C01B0916D010196A11D4D
:10048000B11D80936A0190936B01A0936C01B093AE
:100490006D01BF91AF919F918F913F912F910F90DF
:1004A0000FBE0F901F90189526E8230F0296A11DEE
:1004B000B11DD2CF1F920F920FB60F9211242F931E
:1004C0003F934F935F936F937F938F939F93AF93DC
:1004D000BF93EF93FF9383E791E00E940501FF91A3
:1004E000EF91BF91AF919F918F917F916F915F91AC
:1004F0004F913F912F910F900FBE0F901F90189525
:100500001F920F920FB60F9211242F938F939F93E8
:10051000EF93FF93E0918301F09184018081E0915A
:100520008901F0918A0182FD1BC0908180918C012C
:100530008F5F8F7320918D01821741F0E0918C01C4
:10054000F0E0ED58FE4F958F80938C01FF91EF9175
:100550009F918F912F910F900FBE0F901F90189524
:100560008081F4CF789484B5826084BD84B5816045
:1005700084BD85B5826085BD85B5816085BD80916E
:100580006E00816080936E001092810080918100E6
:1005900082608093810080918100816080938100DE
:1005A000809180008160809380008091B1008460A0
:1005B0008093B1008091B00081608093B000809101
:1005C0007A00846080937A0080917A0082608093C0
:1005D0007A0080917A00816080937A0080917A001D
:1005E000806880937A001092C1006DE9C62E60E0A9
:1005F000D62EF601249179E8A72E70E0B72EF501EA
:100600008491882399F090E0880F991FFC01E859A4
:10061000FF4FA591B491FC01EE58FF4F8591949145
:100620008FB7F8949C91292B2C938FBFE091830175
:10063000F091840182E08083E0917F01F09180015C
:100640001082E0918101F09182018FEC8083109201
:100650008B01E0918701F091880186E08083E09131
:100660008501F0918601808180618083E091850120
:10067000F0918601808188608083E0918501F0910E
:100680008601808180688083E0918501F0918601F8
:1006900080818F7D808382E191E00E9494018FE2CE
:1006A00091E00E94940131EB232E30E0332E40E0A4
:1006B000842E40E0942E83E791E00E94E5000397AA
:1006C0000CF4DDC083E791E00E94C300082F83E7AC
:1006D00091E00E94C30083E791E00E94C300C82F0D
:1006E00080ED800F823020F480ED8C0F8230A0F0FE
:1006F00082E391E00E9494018FE291E00E949401D4
:1007000083E791E00E94E500892B09F4B8C083E7F4
:1007100091E00E94C300F4CF002E000C110B005397
:1007200011090C2E000CDD0BE097B801012E000C16
:10073000880B990B0E94E7042DEC3CEC4CEC5EE33B
:100740000E9478052B013C01BE010D2E000C880B88
:10075000990B0E94E7042DEC3CEC4CEC5EE30E940C
:1007600078059B01AC01C301B2010E94790423E327
:1007700033E343E35FE30E94790420E030E040E8A4
:100780005FE30E947305F12CE12C20E087FD04C09B
:10079000EE24E394F12C21E0F1019491F60184918F
:1007A000F50134913323F1F0992359F0933009F492
:1007B0004CC008F03FC0913009F44DC0923009F4AC
:1007C0004EC0E32FF0E0EE0FFF1FEE58FF4FA59154
:1007D000B4919FB7F89421114FC02C91809582233A
:1007E0008C939FBF8DE491E00E949401C8010E9408
:1007F00006028DE291E00E949401CE010E94060261
:1008000087E591E00E949401B701FF0C880B990BDA
:100810004AE00E94A1018FE291E00E94940183E7E7
:1008200091E00E94E500892B51F183E791E00E945D
:10083000C300F5CF9730B1F09830D1F0943009F083
:10084000C0CF909180009F7D03C0909180009F77E2
:1008500090938000B6CF94B59F7794BDB2CF94B5F6
:100860009F7DFBCF9091B0009F779093B000A9CF70
:100870009091B0009F7DF9CF2C91822BB1CF811444
:10088000910409F418CF0E94F100882309F413CFD2
:100890000E94000010CFE3E7F1E01382128288EE9D
:1008A00093E0A0E0B0E084839583A683B78384E0DF
:1008B00091E09183808385EC90E09587848784EC38
:1008C00090E09787868780EC90E0918B808B81EC1D
:1008D00090E0938B828B82EC90E0958B848B86ECFE
:1008E00090E0978B868B118E128E138E148E089546
:1008F0005058BB27AA270E9490040C9439050E94E7
:100900002B0538F00E94320520F039F49F3F19F48E
:1009100026F40C9428050EF4E095E7FB0C942205D0
:10092000E92F0E944A0558F3BA1762077307840734
:10093000950720F079F4A6F50C946C050EF4E0957B
:100940000B2EBA2FA02D0B01B90190010C01CA0189
:10095000A0011124FF27591B99F0593F50F4503E34
:1009600068F11A16F040A22F232F342F4427585F26
:10097000F3CF469537952795A795F0405395C9F73E
:100980007EF41F16BA0B620B730B840BBAF09150F6
:10099000A1F0FF0FBB1F661F771F881FC2F70EC095
:1009A000BA0F621F731F841F48F487957795679568
:1009B000B795F7959E3F08F0B0CF9395880F08F054
:1009C0009927EE0F979587950895E89409C097FBAE
:1009D0003EF490958095709561957F4F8F4F9F4F16
:1009E0009923A9F0F92F96E9BB279395F69587955A
:1009F00077956795B795F111F8CFFAF4BB0F11F41D
:100A000060FF1BC06F5F7F4F8F4F9F4F16C08823C3
:100A100011F096E911C0772321F09EE8872F762FF9
:100A200005C0662371F096E8862F70E060E02AF03A
:100A30009A95660F771F881FDAF7880F9695879526
:100A400097F9089597F99F6780E870E060E008954E
:100A50009FEF80EC089500240A94161617061806D6
:100A60000906089500240A941216130614060506B2
:100A70000895092E0394000C11F4882352F0BB0F43
:100A800040F4BF2B11F460FF04C06F5F7F4F8F4FA6
:100A90009F4F089557FD9058440F551F59F05F3FE1
:100AA00071F04795880F97FB991F61F09F3F79F090
:100AB00087950895121613061406551FF2CF469512
:100AC000F1DF08C0161617061806991FF1CF869594
:100AD0007105610508940895E894BB276627772778
:100AE000CB0197F908950E94E50508F48FEF08956A
:100AF0000E948B050C9439050E942B0538F00E944A
:100B0000320520F0952311F00C9422050C94280551
:100B100011240C946D050E944A0570F3959FC1F352
:100B2000950F50E0551F629FF001729FBB27F00D9B
:100B3000B11D639FAA27F00DB11DAA1F649F6627F0
:100B4000B00DA11D661F829F2227B00DA11D621F3F
:100B5000739FB00DA11D621F839FA00D611D221FF9
:100B6000749F3327A00D611D231F849F600D211DDD
:100B7000822F762F6A2F11249F5750409AF0F1F060
:100B800088234AF0EE0FFF1FBB1F661F771F881FC9
:100B900091505040A9F79E3F510580F00C942205DA
:100BA0000C946D055F3FE4F3983ED4F386957795FA
:100BB0006795B795F795E7959F5FC1F7FE2B880F6F
:100BC000911D9695879597F90895990F0008550FEF
:100BD000AA0BE0E8FEEF16161706E807F907C0F0C3
:100BE00012161306E407F50798F0621B730B840BCB
:100BF000950B39F40A2661F0232B242B252B21F4A5
:100C000008950A2609F4A140A6958FEF811D811D44
:100C10000895A1E21A2EAA1BBB1BFD010DC0AA1F3D
:100C2000BB1FEE1FFF1FA217B307E407F50720F055
:100C3000A21BB30BE40BF50B661F771F881F991FD0
:100C40001A9469F760957095809590959B01AC0119
:100C5000BD01CF010895EE0FFF1F0590F491E02D27
:060C60000994F894FFCF97
:100C66000000000027018700B4007401E500C300FE
:100C7600D70044696769746520617320656E747274
:100C860061646173202830206F7520312920000DA2
:100C96000A004572726F3A2064696769746520615B
:100CA60070656E61732030206F75203100456E745B
:100CB600726164613A2000202D3E205361696461AF
:0A0CC6002028414E44293A20000086
:00000001FF
